{
  "_format": "hh3-artifact-1",
  "contractName": "chai",
  "sourceName": "contracts/Chai.sol",
  "abi": [
    {
      "inputs": [],
      "stateMutability": "nonpayable",
      "type": "constructor"
    },
    {
      "inputs": [
        {
          "internalType": "string",
          "name": "name",
          "type": "string"
        },
        {
          "internalType": "string",
          "name": "message",
          "type": "string"
        }
      ],
      "name": "buyChai",
      "outputs": [],
      "stateMutability": "payable",
      "type": "function"
    },
    {
      "inputs": [],
      "name": "getMemos",
      "outputs": [
        {
          "components": [
            {
              "internalType": "string",
              "name": "name",
              "type": "string"
            },
            {
              "internalType": "string",
              "name": "message",
              "type": "string"
            },
            {
              "internalType": "uint256",
              "name": "timestamp",
              "type": "uint256"
            },
            {
              "internalType": "address",
              "name": "from",
              "type": "address"
            }
          ],
          "internalType": "struct chai.Memo[]",
          "name": "",
          "type": "tuple[]"
        }
      ],
      "stateMutability": "view",
      "type": "function"
    }
  ],
  "bytecode": "0x6080604052348015600e575f5ffd5b50335f5f6101000a81548173ffffffffffffffffffffffffffffffffffffffff021916908373ffffffffffffffffffffffffffffffffffffffff160217905550610c158061005b5f395ff3fe608060405260043610610028575f3560e01c80636a13d8591461002c578063865c517214610048575b5f5ffd5b61004660048036038101906100419190610583565b610072565b005b348015610053575f5ffd5b5061005c61025c565b60405161006991906107d2565b60405180910390f35b5f34116100b4576040517f08c379a00000000000000000000000000000000000000000000000000000000081526004016100ab9061084c565b60405180910390fd5b5f5f5f9054906101000a900473ffffffffffffffffffffffffffffffffffffffff1673ffffffffffffffffffffffffffffffffffffffff16346040516100f990610897565b5f6040518083038185875af1925050503d805f8114610133576040519150601f19603f3d011682016040523d82523d5f602084013e610138565b606091505b505090508061017c576040517f08c379a0000000000000000000000000000000000000000000000000000000008152600401610173906108f5565b60405180910390fd5b600160405180608001604052808581526020018481526020014281526020013373ffffffffffffffffffffffffffffffffffffffff16815250908060018154018082558091505060019003905f5260205f2090600402015f909190919091505f820151815f0190816101ee9190610b10565b5060208201518160010190816102049190610b10565b50604082015181600201556060820151816003015f6101000a81548173ffffffffffffffffffffffffffffffffffffffff021916908373ffffffffffffffffffffffffffffffffffffffff1602179055505050505050565b60606001805480602002602001604051908101604052809291908181526020015f905b8282101561042d578382905f5260205f2090600402016040518060800160405290815f820180546102af90610940565b80601f01602080910402602001604051908101604052809291908181526020018280546102db90610940565b80156103265780601f106102fd57610100808354040283529160200191610326565b820191905f5260205f20905b81548152906001019060200180831161030957829003601f168201915b5050505050815260200160018201805461033f90610940565b80601f016020809104026020016040519081016040528092919081815260200182805461036b90610940565b80156103b65780601f1061038d576101008083540402835291602001916103b6565b820191905f5260205f20905b81548152906001019060200180831161039957829003601f168201915b5050505050815260200160028201548152602001600382015f9054906101000a900473ffffffffffffffffffffffffffffffffffffffff1673ffffffffffffffffffffffffffffffffffffffff1673ffffffffffffffffffffffffffffffffffffffff16815250508152602001906001019061027f565b50505050905090565b5f604051905090565b5f5ffd5b5f5ffd5b5f5ffd5b5f5ffd5b5f601f19601f8301169050919050565b7f4e487b71000000000000000000000000000000000000000000000000000000005f52604160045260245ffd5b6104958261044f565b810181811067ffffffffffffffff821117156104b4576104b361045f565b5b80604052505050565b5f6104c6610436565b90506104d2828261048c565b919050565b5f67ffffffffffffffff8211156104f1576104f061045f565b5b6104fa8261044f565b9050602081019050919050565b828183375f83830152505050565b5f610527610522846104d7565b6104bd565b9050828152602081018484840111156105435761054261044b565b5b61054e848285610507565b509392505050565b5f82601f83011261056a57610569610447565b5b813561057a848260208601610515565b91505092915050565b5f5f604083850312156105995761059861043f565b5b5f83013567ffffffffffffffff8111156105b6576105b5610443565b5b6105c285828601610556565b925050602083013567ffffffffffffffff8111156105e3576105e2610443565b5b6105ef85828601610556565b9150509250929050565b5f81519050919050565b5f82825260208201905092915050565b5f819050602082019050919050565b5f81519050919050565b5f82825260208201905092915050565b8281835e5f83830152505050565b5f61065482610622565b61065e818561062c565b935061066e81856020860161063c565b6106778161044f565b840191505092915050565b5f819050919050565b61069481610682565b82525050565b5f73ffffffffffffffffffffffffffffffffffffffff82169050919050565b5f6106c38261069a565b9050919050565b6106d3816106b9565b82525050565b5f608083015f8301518482035f8601526106f3828261064a565b9150506020830151848203602086015261070d828261064a565b9150506040830151610722604086018261068b565b50606083015161073560608601826106ca565b508091505092915050565b5f61074b83836106d9565b905092915050565b5f602082019050919050565b5f610769826105f9565b6107738185610603565b93508360208202850161078585610613565b805f5b858110156107c057848403895281516107a18582610740565b94506107ac83610753565b925060208a01995050600181019050610788565b50829750879550505050505092915050565b5f6020820190508181035f8301526107ea818461075f565b905092915050565b5f82825260208201905092915050565b7f506c65617365207061792067726561746572207468616e2030206574686572005f82015250565b5f610836601f836107f2565b915061084182610802565b602082019050919050565b5f6020820190508181035f8301526108638161082a565b9050919050565b5f81905092915050565b50565b5f6108825f8361086a565b915061088d82610874565b5f82019050919050565b5f6108a182610877565b9150819050919050565b7f455448207472616e73666572206661696c6564000000000000000000000000005f82015250565b5f6108df6013836107f2565b91506108ea826108ab565b602082019050919050565b5f6020820190508181035f83015261090c816108d3565b9050919050565b7f4e487b71000000000000000000000000000000000000000000000000000000005f52602260045260245ffd5b5f600282049050600182168061095757607f821691505b60208210810361096a57610969610913565b5b50919050565b5f819050815f5260205f209050919050565b5f6020601f8301049050919050565b5f82821b905092915050565b5f600883026109cc7fffffffffffffffffffffffffffffffffffffffffffffffffffffffffffffffff82610991565b6109d68683610991565b95508019841693508086168417925050509392505050565b5f819050919050565b5f610a11610a0c610a0784610682565b6109ee565b610682565b9050919050565b5f819050919050565b610a2a836109f7565b610a3e610a3682610a18565b84845461099d565b825550505050565b5f5f905090565b610a55610a46565b610a60818484610a21565b505050565b5b81811015610a8357610a785f82610a4d565b600181019050610a66565b5050565b601f821115610ac857610a9981610970565b610aa284610982565b81016020851015610ab1578190505b610ac5610abd85610982565b830182610a65565b50505b505050565b5f82821c905092915050565b5f610ae85f1984600802610acd565b1980831691505092915050565b5f610b008383610ad9565b9150826002028217905092915050565b610b1982610622565b67ffffffffffffffff811115610b3257610b3161045f565b5b610b3c8254610940565b610b47828285610a87565b5f60209050601f831160018114610b78575f8415610b66578287015190505b610b708582610af5565b865550610bd7565b601f198416610b8686610970565b5f5b82811015610bad57848901518255600182019150602085019450602081019050610b88565b86831015610bca5784890151610bc6601f891682610ad9565b8355505b6001600288020188555050505b50505050505056fea26469706673582212203b955a5356b13844321abc96256a313ec67acd18be1b8f43fbd8610a8b88b22c64736f6c634300081c0033",
  "linkReferences": {},
  "deployedLinkReferences": {},
  "immutableReferences": {},
  "inputSourceName": "project/contracts/Chai.sol",
  "buildInfoId": "solc-0_8_28-811e262cc403674427533eae4d8f9d72876ed6b1"
}